:100000000C9406040C942E040C942E040C942E04D0
:100010000C942E040C942E040C942E040C942E0498
:100020000C942E040C942E040C942E040C942E0488
:100030000C942E040C942E040C942E040C942E0478
:100040000C94E40A0C942E040C94B20A0C948C0ABE
:100050000C942E040C942E040C942E040C942E0458
:100060000C942E0B0C942E046F6B00696E76616CF1
:1000700069645F706172616D00524E3239303300D5
:1000800064656E696564006E6F745F6A6F696E6542
:1000900064006B6579735F6E6F745F696E6974007D
:1000A000696E76616C69645F646174615F6C656ED2
:1000B000006D61635F6572720034323934393637EE
:1000C000323435000D0A00726164696F5F657272C7
:1000D000006D61635F706175736564006F666600D3
:1000E0006F6E006D61635F74785F6F6B0072616447
:1000F000696F5F7278202000616363657074656466
:1001000000524E3234383300726164696F5F747824
:100110005F6F6B006D61635F7278006E6F5F667218
:1001200065655F636800696E76616C69645F7061C4
:1001300072616D006F6B006D616320726573657431
:100140000D0A006D61632073657420727864656CBC
:100150006179312025750D0A006D61632073657426
:100160002072783220257520256C750D0A006D618E
:100170006320736574206C696E6B63686B202575F2
:100180000D0A006D6163206A6F696E206F74616192
:100190000D0A006D61632067657420646E6374727C
:1001A0000D0A006D61632073657420646E63747260
:1001B00020256C750D0A006D6163206765742075DC
:1001C000706374720D0A006D61632073657420752D
:1001D0007063747220256C750D0A00726164696F1A
:1001E0002067657420666465760D0A006D61632082
:1001F00067657420726574780D0A006D6163207301
:10020000657420726574782025750D0A0073797302
:1002100020676574207665720D0A00726164696FEB
:10022000206765742070726C656E0D0A00726164DF
:10023000696F20676574206372630D0A00726164E0
:10024000696F2067657420736E720D0A00726164B5
:10025000696F206765742062770D0A0072616469B6
:100260006F20676574207764740D0A007261646999
:100270006F206765742063720D0A00726164696F94
:100280002067657420626974726174650D0A00727A
:100290006164696F2067657420727862770D0A0067
:1002A000726164696F206765742073660D0A00725D
:1002B0006164696F20676574207077720D0A00723F
:1002C0006164696F2067657420667265710D0A004C
:1002D000726164696F20676574206D6F640D0A0038
:1002E000726164696F207365742062772025750DD3
:1002F0000A00726164696F207365742077647420EA
:10030000256C750D0A00726164696F207365742035
:1003100063722025730D0A00726164696F20736532
:1003200074206372632025730D0A00726164696F23
:10033000207365742070726C656E2025750D0A003F
:10034000726164696F207365742066646576202528
:10035000750D0A00726164696F20736574206269AB
:1003600074726174652025750D0A00726164696F8D
:100370002073657420727862772025732E25730DA3
:100380000A00726164696F20736574207278627705
:100390002025730D0A00726164696F2073657420F3
:1003A00073662025730D0A00726164696F2073659E
:1003B00074207077722025690D0A00726164696F7C
:1003C00020736574206672657120256C750D0A00B6
:1003D000726164696F20736574206D6F642025738A
:1003E0000D0A00726164696F206377206F66660D85
:1003F0000A00726164696F206377206F6E0D0A00D6
:10040000726164696F2074782025730D0A0072612F
:1004100064696F20727820300D0A006D6163206777
:100420006574206368207374617475732025750D7D
:100430000A006D61632067657420636820647272CE
:10044000616E67652025750D0A006D616320676523
:100450007420636820646379636C652025750D0AD8
:10046000006D616320676574206368206672657142
:100470002025750D0A006D61632067657420737413
:10048000617475730D0A006D616320676574206780
:10049000776E620D0A006D616320676574206D726E
:1004A000676E0D0A006D616320676574206463796F
:1004B000636C6570730D0A006D616320676574205D
:1004C0006164720D0A006D61632067657420707746
:1004D000726964780D0A006D61632067657420623B
:1004E000616E640D0A006D6163206765742064723B
:1004F0000D0A006D61632067657420617070657519
:10050000690D0A006D616320676574206465766516
:1005100075690D0A006D61632067657420646576F6
:10052000616464720D0A006D6163207365742063F9
:1005300068207374617475732025752025730D0A06
:10054000006D61632073657420636820647272615A
:100550006E67652025752025752025750D0A006DAF
:1005600061632073657420636820646379636C65DC
:100570002025752025750D0A006D61632073657453
:10058000206368206672657120257520256C750DC5
:100590000A006D61632073657420616472202573A5
:1005A0000D0A006D616320736574206472202575E7
:1005B0000D0A006D61632073657420707772696441
:1005C000782025750D0A006D6163207365742061C4
:1005D00070706B65792025730D0A006D616320735F
:1005E000657420617070736B65792025730D0A0046
:1005F0006D616320736574206E776B736B65792012
:1006000025730D0A006D616320736574206170703D
:100610006575692025730D0A006D6163207365742B
:10062000206465766575692025730D0A006D616328
:100630002073657420646576616464722025730D8F
:100640000A006D616320726573756D650D0A006D3A
:1006500061632070617573650D0A006D61632073BD
:100660006176650D0A006D6163206A6F696E2061B5
:1006700062700D0A006D616320747820756E636E80
:10068000662025752025730D0A006D61632074783E
:1006900020636E662025752025730D0A006D616349
:1006A0002072657365742025730D0A0073797320B9
:1006B000676574207664640D0A007379732067653A
:1006C000742068776575690D0A0073797320666117
:1006D00063746F727952455345540D0A00737973F0
:1006E0002072657365740D0A0000000008000201A5
:1006F0000000030407000000000000000034012691
:10070000011B01140108010101F800ED00E300E004
:1007100000DC00D100C700C400B900B100A0009205
:10072000008700800079006B006800DD06CA06BA09
:1007300006AC069D068A06750666065B064F0642EF
:10074000062D0619060506F005DB05C705B305A34A
:1007500005920579055F054105270515050405F393
:1007600004E604D704C604B804A5049604870476F6
:100770000461044A0432041B040E040004F203E37F
:1007800003D003BB03A803960382036B0354034007
:10079000032B0318030603F202E002D002BF02AFEC
:1007A00002A0028F027B026C025C024D023D022D10
:1007B000021B020D02FB01EC01DB01C701B701A323
:1007C00001930183016E01590143013701000000CB
:1007D00000250028002B0000000000240027002A2C
:1007E00000040404040404040402020202020203DA
:1007F00003030303030102040810204080010204E4
:10080000081020010204081020004D0C11241FBE06
:10081000CFEFD8E0DEBFCDBF27E0A8E7B1E001C051
:100820001D92AB34B207E1F711E0A0E0B1E0E2E7DE
:10083000F0E302C005900D92A837B107D9F714E094
:10084000C6E0D4E004C02197FE010E941518C5300F
:10085000D107C9F70E94B40C0C9437180C9400000F
:10086000CF92DF92EF92FF926B017C01E0914C02FC
:10087000F0914D0282E08083C11481EED806E1043C
:10088000F104A1F060E079E08DE390E0A70196012A
:100890000E94BC17215031094109510956954795CD
:1008A00037952795211580E13807A8F0E0914C0293
:1008B000F0914D02108260E874E88EE190E0A701AB
:1008C00096010E94BC1721503109410951095695E2
:1008D000479537952795E0914802F091490230837A
:1008E000E0914A02F0914B02208310925402E09171
:1008F0005002F091510286E08083E0914E02F09127
:100900004F02808180618083E0914E02F0914F021E
:10091000808188608083E0914E02F0914F02808157
:1009200080688083E0914E02F0914F0280818F7D3C
:100930008083FF90EF90DF90CF900895982F2091C3
:100940003B0281E0213208F043C0809117028111FF
:10095000FCCF80913A0232E0309317029093160256
:100960009FEF909315021092140220931302AAE1B4
:10097000B2E0E3EFF1E090E0291331C01092F20110
:100980009091F201880F892B8093F2018091F101FF
:10099000813049F51092F1018091F2018093BB0002
:1009A0008091BC0083FDF8CF85EC8093BC008091E2
:1009B00017028230E1F3809115028F3FB1F08091F0
:1009C00015028032A1F080911502803391F084E00D
:1009D0001092190210923B021092180208953D9154
:1009E00031939F5FC9CF85EEE0CF80E0F1CF82E009
:1009F000EFCF83E0EDCF90E0FC01EB50F84F249176
:100A00008F51984FFC018491882399F090E0880FD2
:100A1000991FFC01E952F84FA591B491FC01E353F1
:100A2000F84F859194918FB7F894EC91E22BEC9369
:100A30008FBF089508950895AF92BF92CF92DF922D
:100A4000EF92FF920F931F93CF93DF936C017B0183
:100A50008B01040F151FEB015E01AE18BF08C01714
:100A6000D10759F06991D601ED91FC910190F08187
:100A7000E02DC6010995892B79F7C501DF91CF914A
:100A80001F910F91FF90EF90DF90CF90BF90AF90AC
:100A900008950895FC01538D448D252F30E0842F57
:100AA00090E0821B930B541710F0CF960895019796
:100AB0000895FC01918D828D981761F0A28DAE0F83
:100AC000BF2FB11D5D968C91928D9F5F9F73928F0A
:100AD00090E008958FEF9FEF0895FC01918D828D36
:100AE000981731F0828DE80FF11D858D90E0089503
:100AF0008FEF9FEF0895FC01918D228D892F90E05B
:100B0000805C9F4F821B91098F73992708958CE316
:100B100092E00E947B0521E0892B09F420E0822FDE
:100B2000089580E090E0892B29F00E9487058111CB
:100B30000C9400000895FC01A48DA80FB92FB11DDD
:100B4000A35ABF4F2C91848D90E001968F73992703
:100B5000848FA689B7892C93A089B1898C918370E1
:100B600080648C93938D848D981306C00288F389DA
:100B7000E02D80818F7D80830895EF92FF920F9307
:100B80001F93CF93DF93EC0181E0888F9B8D8C8D39
:100B900098131AC0E889F989808185FF15C09FB72D
:100BA000F894EE89FF896083E889F98980818370F0
:100BB000806480839FBF81E090E0DF91CF911F919F
:100BC0000F91FF90EF900895F62E0B8D10E00F5FC0
:100BD0001F4F0F731127E02E8C8D8E110CC00FB696
:100BE00007FCFACFE889F989808185FFF5CFCE012E
:100BF0000E949B05F1CFEB8DEC0FFD2FF11DE35A09
:100C0000FF4FF0829FB7F8940B8FEA89FB898081B0
:100C10008062CFCFCF93DF93EC01888D8823B9F02A
:100C2000AA89BB89E889F9898C9185FD03C08081F7
:100C300086FD0DC00FB607FCF7CF8C9185FFF2CF74
:100C4000808185FFEDCFCE010E949B05E9CFDF912A
:100C5000CF91089590E0FC01E751F94F2491FC01F8
:100C6000EB50F84F3491FC01EF51F84FE491EE2333
:100C7000C9F0222339F0233001F1A8F4213019F111
:100C8000223029F1F0E0EE0FFF1FE353F84FA5915A
:100C9000B4918FB7F894EC91611126C030953E2342
:100CA0003C938FBF08952730A9F02830C9F0243035
:100CB00049F7809180008F7D03C0809180008F77FD
:100CC00080938000DFCF84B58F7784BDDBCF84B580
:100CD0008F7DFBCF8091B0008F778093B000D2CF13
:100CE0008091B0008F7DF9CF3E2BDACF85E00E9456
:100CF000FB0460E085E00C942A063FB7F8948091ED
:100D0000C0019091C101A091C201B091C30126B56B
:100D1000A89B05C02F3F19F00196A11DB11D3FBF33
:100D2000BA2FA92F982F8827BC01CD01620F711D02
:100D3000811D911D42E0660F771F881F991F4A95FC
:100D4000D1F708958F929F92AF92BF92CF92DF9288
:100D5000EF92FF926B017C010E947D064B015C01CA
:100D6000C114D104E104F104B9F00E947D066819B0
:100D700079098A099B09683E73408105910580F3D2
:100D800021E0C21AD108E108F10888EE880E83E05C
:100D9000981EA11CB11CE4CFFF90EF90DF90CF9084
:100DA000BF90AF909F908F9008952FB7F894609167
:100DB000BC017091BD018091BE019091BF012FBF18
:100DC000089585ED8093BC008091BC0084FDFCCF2C
:100DD00010921702089520919801260F3327331F90
:100DE00021323105ECF420911702FC0190E080E003
:100DF000243069F082E00895A09198012191AC011E
:100E000048585E4FA40FB52FB11D2C93019686173D
:100E100098F380919801680F6093980180E008959D
:100E200081E00895E091CF018091CE01E81730F480
:100E3000F0E0E053FE4F808190E008958FEF9FEF48
:100E400008959091CF018091CE012FEF3FEF981739
:100E500048F4E92FF0E0E053FE4F208130E09F5F3F
:100E60009093CF01C90108958091CE019091CF0157
:100E7000891B990B0895CF92DF92EF92FF920F9307
:100E80001F93CF93DF937C01CB018A01209118023D
:100E9000222389F0EB016B01C40ED51ECC15DD05B4
:100EA00069F06991D701ED91FC910190F081E02DFD
:100EB000C7010995F3CF642F0E94EB06C801DF91AB
:100EC000CF911F910F91FF90EF90DF90CF900895F9
:100ED000CF93DF931F92CDB7DEB7698320911802BD
:100EE0002223F9F020913B02203258F021E030E03B
:100EF000FC013383228390E080E00F90DF91CF915B
:100F0000089580911902E82FF0E0E65EFD4F998187
:100F100090838F5F8093190280933B0281E090E081
:100F2000ECCF61E0CE0101960E94EB06F7CFCF93A4
:100F3000C62F9091F001906221E0209318029093C7
:100F40003A021092190210923B02682F87EF96E046
:100F50000E9468076C2F87EF96E00E94680781E087
:100F6000CF910C949E0490E080E00895FC010190E4
:100F70000020E9F73197AF01481B590BBC018CE306
:100F800092E00C941C058F929F92AF92BF920F93A8
:100F90001F93CF93DF93CDB7DEB7A1970FB6F89429
:100FA000DEBF0FBECDBF19A2423008F44AE08E0169
:100FB0000F5D1F4F842E912CB12CA12CA501940103
:100FC0000E94BC17E62FB901CA01EA30F4F4E05DD3
:100FD000D801EE938D01232B242B252B79F790E05C
:100FE00080E0109719F0CD010E94B607A1960FB6C8
:100FF000F894DEBF0FBECDBFDF91CF911F910F914F
:10100000BF90AF909F908F900895E95CE1CFAF9231
:10101000BF92CF92DF92EF92FF920F931F93CF93E5
:10102000DF93EA0109900020E9F72197C41BD50B53
:101030006C177D07B8F07A016C01B12CA12C8B01E3
:101040000C1B1D0B0A151B0568F0AE01B701C6018C
:101050008A0D9B1D0E941B18892B81F08FEFA81A07
:10106000B80AF0CF80E0DF91CF911F910F91FF90F0
:10107000EF90DF90CF90BF90AF90089581E0F3CFD5
:101080002F923F924F925F926F927F928F929F9298
:10109000AF92BF92CF92DF92EF92FF920F931F9386
:1010A000CF93DF936C011B015A01490127013801DD
:1010B0008091E602882341F08091D902811104C019
:1010C0008CE392E00E940A061091D902E601699130
:1010D000662339F01111FBCF8CE392E00E94BD052D
:1010E000F6CF6091E2027091E3028091E402909168
:1010F000E5020E94A206E7EEF2E080E9DF011D9220
:101100008A95E9F710927803109277030E94D5062A
:101110006B017C01D0E0C0E00E94D5066C197D090E
:101120008E099F09641575058605970508F051C05D
:101130008091D902811167C08CE392E00E947B0507
:10114000892BB1F0CF38D10598F48091D90288234A
:10115000D9F18FEFFE01E752FD4F8687809177032B
:10116000909178030196909378038093770321966A
:101170000091770310917803A101B80187EE92E006
:101180000E940708811139C0A501B80187EE92E0DD
:101190000E940708811133C08114910441F0A40119
:1011A000B80187EE92E00E94070881112AC00E94D0
:1011B000D5066C157D058E059F0508F0ADCF0E9404
:1011C000D5066B017C01A8CF8CE392E00E94590503
:1011D000C1CF80E0DF91CF911F910F91FF90EF90F1
:1011E000DF90CF90BF90AF909F908F907F906F9047
:1011F0005F904F903F902F90089581E0EBCF82E079
:10120000E9CF83E0E7CFCF38D10508F0B1CFA1CF48
:10121000EF92FF920F931F937801890130E020E055
:101220000E9440081F910F91FF90EF9008959091B8
:10123000F001906221E02093180290933A021092FC
:10124000190210923B02682F87EF96E00E94680710
:1012500081E00E949E04809117028111FCCF809151
:10126000F00191E090931702909316022FEF2093D4
:10127000150210921402109213029093F2019091B1
:10128000F2018062880F892B8093F2018091F10135
:10129000813041F51092F1018091F2018093BB0001
:1012A0008091BC0083FDF8CF85EC8093BC008091D9
:1012B00017028130E1F38091140291E0811102C0A4
:1012C00090911402A3EFB1E0E0EDF1E080E089132A
:1012D0000BC01092CF018093CE0187EF96E00E9461
:1012E0002107089585EEE1CF2D9121938F5FEFCFF8
:1012F000CF93DF93D82FC62F89E00E94170961E0B2
:1013000070E001C0660FDA95EAF7C13031F4682B5E
:1013100089E0DF91CF910C94970760956823F8CF0F
:1013200060E084E00E94780960E085E00E9478092E
:1013300064E670E080E090E00C94A206CF93DF9327
:10134000D82FC62F80E00E94170961E070E001C02D
:10135000660FDA95EAF7C11106C0682B80E0DF91CD
:10136000CF910C94970760956823F8CFCF93109294
:10137000F0011092CF011092CE011092190210923A
:101380003B0210921702C1E0C09316021092F101C5
:1013900061E082E10E942A0661E083E10E942A0660
:1013A000E9EBF0E080818E7F808380818D7F808378
:1013B00088E48093B80085E48093BC008AE195E0DE
:1013C0009093CB018093CA018BE195E09093C90182
:1013D0008093C8018091F0018062C09318028093CD
:1013E0003A021092190210923B0260E087EF96E0F9
:1013F0000E9468076FEF87EF96E00E94680760E041
:1014000087EF96E00E94680760E087EF96E00E9411
:10141000680760E087EF96E00E94680760E087EF6A
:1014200096E00E94680760E087EF96E00E946807F8
:1014300060E087EF96E00E94680760E087EF96E043
:101440000E94680760E087EF96E00E94680760E00E
:1014500087EF96E00E94680781E00E949E046AE0A0
:1014600070E080E090E00E94A20661E080E00E94CF
:101470009E0961E081E00E949E0961E082E00E9495
:101480009E0961E083E00E949E0961E084E00E9481
:101490009E0961E085E00E949E0960E086E00E946E
:1014A0009E0961E087E00E949E0964E670E080E0AA
:1014B00090E00E94A20660E080E00E94780960E06F
:1014C00081E00E94780960E082E00E94780961E092
:1014D00083E00E94780961E084E00E94780960E07E
:1014E00085E00E94780961E087E00E94780964E65F
:1014F00070E080E090E0CF910C94A2066FE471E080
:1015000087EE92E00E94DA14009711F00C94B31465
:1015100060E070E0CB0108951F920F920FB60F921A
:1015200011242F933F934F935F936F937F938F93E8
:101530009F93AF93BF93EF93FF938CE392E00E944E
:101540009B05FF91EF91BF91AF919F918F917F91FB
:101550006F915F914F913F912F910F900FBE0F9020
:101560001F9018951F920F920FB60F9211242F9370
:101570008F939F93EF93FF93E0914C02F0914D0274
:101580008081E0915202F091530282FD1BC0908154
:10159000809155028F5F8F7320915602821741F020
:1015A000E0915502F0E0E45CFD4F958F8093550289
:1015B000FF91EF919F918F912F910F900FBE0F9000
:1015C0001F9018958081F4CF1F920F920FB60F9243
:1015D00011242F933F938F939F93AF93BF93809149
:1015E000BC019091BD01A091BE01B091BF013091AD
:1015F000BB0123E0230F2D3758F50196A11DB11D26
:101600002093BB018093BC019093BD01A093BE01C8
:10161000B093BF018091C0019091C101A091C2011E
:10162000B091C3010196A11DB11D8093C00190939B
:10163000C101A093C201B093C301BF91AF919F912B
:101640008F913F912F910F900FBE0F901F90189583
:1016500026E8230F0296A11DB11DD2CF1F920F9233
:101660000FB60F9211242F933F934F935F936F9375
:101670007F938F939F93AF93BF93EF93FF9380914B
:10168000B900887F803609F44AC0F0F5883209F441
:10169000A7C018F5803109F49BC0B8F4882309F479
:1016A000F9C0883009F494C0FF91EF91BF91AF91D8
:1016B0009F918F917F916F915F914F913F912F916A
:1016C0000F900FBE0F901F901895883109F488C0B5
:1016D000803251F78093150214C0803409F49DC004
:1016E00040F48033B9F38833F9F68093150285EC22
:1016F000B0C0803509F485C0883509F496C08834B7
:1017000099F60E94E106D0CF883909F48CC038F5EB
:10171000883729F050F4883611F0803729F683E0B5
:10172000809317021092BA0157C0883809F47BC021
:10173000803919F0803809F0B7CF8091BA01803232
:1017400008F071C0E091BA0181E08E0F8093BA0178
:101750008091BB00F0E0E656FE4F80833DC0803BA9
:1017600039F0E0F4803A09F479C0883A09F09CCF66
:1017700084E0809317021092990110929801E091F1
:10178000CA01F091CB0109958091980181110FC098
:1017900081E0809398011092780109C0803C09F49F
:1017A000A6CF883C09F4A3CF883B09F07DCFE09118
:1017B000990181E08E0F80939901F0E0E858FE4F87
:1017C00080818093BB00909199018091980129C0FC
:1017D0008091F2018093BB0085EC8093BC0064CFC4
:1017E0009091140280911302981758F5E091140219
:1017F00081E08E0F80931402F0E0ED50FE4F808167
:10180000E9CFE091140281E08E0F80931402809161
:10181000BB00F0E0ED50FE4F808390911402809168
:1018200013029817C8F285E8D8CFE091140281E03E
:101830008E0F809314028091BB00F0E0ED50FE4FBC
:1018400080838091160281115CCF81E08093F10149
:1018500084EA8093BC001092170226CF85EC809317
:10186000BC00109217028091BA01803230F4E091EE
:10187000BA01F0E0E656FE4F10826091BA0170E0C6
:10188000E091C801F091C9018AE991E009951092AF
:10189000BA010ACF1092150234CFECE3F2E01382C2
:1018A000128288EE93E0A0E0B0E084839583A68363
:1018B000B7832FE231E03183208325EC30E0358798
:1018C000248724EC30E03787268720EC30E0318B0A
:1018D000208B21EC30E0338B228B22EC30E0358BF7
:1018E000248B26EC30E0378B268B118E128E138ED4
:1018F000148EE9EDF2E040E052EC61E070E04183EB
:1019000052836383748348E853E160E070E0458369
:1019100056836783708744E650E060E070E041875B
:1019200052876387748721E02587E7EFF6E013820B
:10193000128284839583A683B78381E491E09183A7
:101940008083E3E0F7E01682178210861186128604
:1019500013861486158616861786108A118A128AAF
:10196000138A148A158A0895CF93DF93CDB7DEB713
:10197000C757D1090FB6F894DEBF0FBECDBF78941C
:1019800084B5826084BD84B5816084BD85B5826084
:1019900085BD85B5816085BD80916E008160809335
:1019A0006E0010928100809181008260809381009E
:1019B00080918100816080938100809180008160AE
:1019C000809380008091B10084608093B100809109
:1019D000B00081608093B00080917A008460809331
:1019E0007A0080917A00826080937A0080917A00F8
:1019F000816080937A0080917A00806880937A0079
:101A00001092C100109245071092460710924707A6
:101A100010924807109205071092060710920707C8
:101A2000109208070E94D5066B017C014B015C01F6
:101A300028EB820E2BE0921EA11CB11C0E94D50641
:101A40006C157D058E059F0528F086169706A8065D
:101A5000B906A0F768EE73E080E090E00E94A2066D
:101A600060E072EC81E090E00E9430040E94D506B4
:101A70006093050770930607809307079093080704
:101A800082E591E00E94B6070E94D5066B017C01B9
:101A90004B015C013AE0830E911CA11CB11C0E9419
:101AA000D5066C157D058E059F0528F086169706D0
:101AB000A806B906A0F781E0809319078DE00E947F
:101AC000FB0460E08DE00E942A0680E091EEA0E039
:101AD000B0E08093DA029093DB02A093DC02B09333
:101AE000DD021092D9020E9476060E94900960E001
:101AF00080E00E9478091092CD0164E670E080E0F9
:101B000090E00E94A2068091D902811124C08CE34A
:101B100092E00E940A06E0914E02F0914F0280810D
:101B20008F7E8083E0914E02F0914F028081877F0B
:101B30008083E0914E02F0914F0280818F77808305
:101B4000E0914E02F0914F0280818F7D80838091E1
:101B500056028093550268EC70E080E090E00E94AD
:101B6000A2061092D9028091CC01813011F00E941E
:101B7000B60965E070E080E090E00E94A20661E0B6
:101B800080E00E94780981E08093CD0164E670E0F6
:101B900080E090E00E94A20685E00E94FB0461E0E4
:101BA00085E00E942A0660E084E00E94780961E0F6
:101BB00085E00E94780964E670E080E090E00E9491
:101BC000A2066091DA027091DB028091DC029091B2
:101BD000DD022091D902211102C00E9430046CE282
:101BE00071E080E090E00E94A206A9E7B3E08AEFEE
:101BF000FD0111928A95E9F74E01F5E68F0E911CD1
:101C00008FE0F401682E11926A94E9F75E0123E3F4
:101C1000A20EB11CF501682E11926A94E9F79E019B
:101C20002F5F3F4F6901F90111928A95E9F7E3EBC4
:101C3000F7E0859194919F938F93BF93AF930E9408
:101C40001B15E7E0F7E0859194919F938F939F9206
:101C50008F920E941B15E5E2F7E0859194919F9386
:101C60008F93BF92AF920E941B1577E2672E77E0A9
:101C7000772EF301859194919F938F93DF92CF926A
:101C80000E941B1518EEE12E13E0F12E00E010E08B
:101C90009601A501B40189E793E00E9440080FB6C0
:101CA000F894DEBF0FBECDBF813009F0CBC4809366
:101CB000F60660E08DE00E942A06E5961FAEE597E5
:101CC000A9E7B3E08AEFFD0111928A95E9F78FE069
:101CD000F501282F11922A95E9F7F60111928A95BC
:101CE000E9F7EDE3F7E0859194919F938F93BF938C
:101CF000AF930E941B15E9E1F7E0859194919F93C2
:101D00008F93BF92AF920E941B156FEF462E66E035
:101D1000562EF201859194919F938F93DF92CF92EB
:101D20000E941B1504EF11E020E030E0A601B50190
:101D300089E793E00E9408090FB6F894DEBF0FBE52
:101D4000CDBF813009F48AC461E08DE00E942A068B
:101D500031E0E5963FAFE597A9E7B3E08AEFFD01F3
:101D600011928A95E9F74FE0F42EF5012F2D11928B
:101D70002A95E9F7F6012F2D11922A95E9F75DEFE3
:101D8000252E56E0352E8091F6068150823008F0DF
:101D90006AC4E5E8F7E0859194911F92FF929F93C2
:101DA0008F93BF93AF930E941B15F101859194917E
:101DB0009F938F93BF92AF920E941B15F201859162
:101DC00094919F938F93DF92CF920E941B1504EF03
:101DD00011E020E030E0A601B50189E793E00E9420
:101DE00008090FB6F894DEBF0FBECDBF813009F0F1
:101DF0003AC4F0921D0660E08DE00E942A06A9E731
:101E0000B3E08AEFFD0111928A95E9F78FE0F601C0
:101E100011928A95E9F7EFE9F7E0859194919F9304
:101E20008F93BF93AF930E941B15F20185919491FC
:101E30009F938F93DF92CF920E941B1504EF11E0C6
:101E400020E030E0A6016FE471E089E793E00E94B2
:101E500008090FB6F894DEBF0FBECDBF813009F080
:101E60000BC40E947E0A60931D0660E08DE00E9414
:101E70002A068091F606813009F007C4A9E7B3E08D
:101E80008AEFFD0111928A95E9F782E3F501282F87
:101E900011922A95E9F7F60111928A95E9F7E3E89C
:101EA000F7E08591949123E32F932EEB2F9327E274
:101EB0002F9320EA2F939F938F93BF93AF930E940A
:101EC0001B15F101859194919F938F93BF92AF92CF
:101ED0000E941B15F201859194919F938F93DF923D
:101EE000CF920E941B1504EF11E020E030E0A60124
:101EF000B50189E793E00E9408090FB6F894DEBFA8
:101F00000FBECDBF813009F0C0C380EA97E2AEEBCF
:101F1000B3E380935A0590935B05A0935C05B0935F
:101F20005D0560E08DE00E942A06A9E7B3E08AEF34
:101F3000FD0111928A95E9F78FE0F60111928A95D9
:101F4000E9F7EDE9F7E0859194919F938F93BF9323
:101F5000AF930E941B15F201859194919F938F93EB
:101F6000DF92CF920E941B1504EF11E020E030E0D9
:101F7000A6016FE471E089E793E00E9408090FB6BB
:101F8000F894DEBF0FBECDBF813009F087C30E9439
:101F90007E0A60935A0570935B0580935C0590936D
:101FA0005D0560E08DE00E942A06A9E7B3E08AEFB4
:101FB000FD0111928A95E9F78FE0F501282F119222
:101FC0002A95E9F7F60111928A95E9F7E7E8F7E033
:101FD0008591949127E031E03F932F939F938F93C6
:101FE000BF93AF930E941B1539E2E32E37E0F32E27
:101FF000F701859194919F938F93BF92AF920E9426
:102000001B15F301859194919F938F93DF92CF924B
:102010000E941B1504EF11E020E030E0A601B5019D
:1020200089E793E00E9408090FB6F894DEBF0FBE5F
:10203000CDBF813009F43BC361E08DE00E942A06E8
:1020400031E0E5963FAFE597A9E7B3E08AEFFD0100
:1020500011928A95E9F78FE0F60111928A95E9F7D6
:10206000E1EAF7E0859194919F938F93BF93AF93AB
:102070000E941B15F201859194919F938F93DF929B
:10208000CF920E941B1504EF11E020E030E0A60182
:102090006FE471E089E793E00E9408090FB6F894B5
:1020A000DEBF0FBECDBF813009F006C3EEE1F6E022
:1020B00085E0DF011D928A95E9F745E050E067EE83
:1020C00072E0CF010E94281860E08DE00E942A068D
:1020D000A9E7B3E08AEFFD0111928A95E9F78FE055
:1020E000F501282F11922A95E9F7F60111928A95A8
:1020F000E9F7E5E9F7E08591949123E031E03F933A
:102100002F939F938F93BF93AF930E941B15F10161
:10211000859194919F938F93BF92AF920E941B15CC
:10212000F201859194919F938F93DF92CF920E94B9
:102130001B1504EF11E020E030E0A601B50189E7AE
:1021400093E00E9408090FB6F894DEBF0FBECDBF22
:10215000813009F0BAC2EBE2F6E084E0DF011D92C3
:102160008A95E9F744E050E063E071E0CF010E9416
:10217000281860E08DE00E942A06A9E7B3E08AEF04
:10218000FD0111928A95E9F78FE0F60111928A9587
:10219000E9F7E7EAF7E0859194919F938F93BF93D6
:1021A000AF930E941B15F201859194919F938F9399
:1021B000DF92CF920E941B1504E610E020E030E091
:1021C000A6016FE471E089E793E00E9408090FB669
:1021D000F894DEBF0FBECDBF813049F46FE471E0EB
:1021E00087EE92E00E94DA14009709F077C261E06E
:1021F0008DE00E942A0631E0E5963FAFE597A9E71A
:10220000B3E08AEFFD0111928A95E9F78FE0F501BD
:10221000282F11922A95E9F7F60111928A95E9F78C
:10222000E9E9F7E0859194911F922DE72F939F9311
:102230008F93BF93AF930E941B15F10185919491E9
:102240009F938F93BF92AF920E941B15F2018591CD
:1022500094919F938F93DF92CF920E941B1504EF6E
:1022600011E020E030E0A601B50189E793E00E948B
:1022700008090FB6F894DEBF0FBECDBF61E0813014
:1022800039F48DE790E0909334068093330660E054
:102290008DE00E942A06A9E7B3E08AEFFD011192C2
:1022A0008A95E9F78FE0F60111928A95E9F7EBEA52
:1022B000F7E0859194919F938F93BF93AF930E9482
:1022C0001B15F201859194919F938F93DF92CF928A
:1022D0000E941B1504EF11E020E030E0A6016FE43E
:1022E00071E089E793E00E9408090FB6F894DEBF19
:1022F0000FBECDBF813009F003C20E947E0A7093E9
:1023000034066093330660E08DE00E942A06A9E758
:10231000B3E08AEFFD0111928A95E9F78FE0F501AC
:10232000282F11922A95E9F7F60111928A95E9F77B
:10233000E3E9F7E08591949120E031E03F932F931A
:102340009F938F93BF93AF930E941B15F7018591C5
:1023500094919F938F93BF92AF920E941B15F301AC
:10236000859194919F938F93DF92CF920E941B153A
:1023700004EF11E020E030E0A601B50189E793E029
:102380000E9408090FB6F894DEBF0FBECDBF8130A2
:1023900009F0BFC110921A0660E08DE00E942A0683
:1023A000A9E7B3E08AEFFD0111928A95E9F78FE082
:1023B000F401682E11926A94E9F7F50111928A9559
:1023C000E9F784E1F60111928A95E9F7EFEAF7E07F
:1023D000859194919F938F93BF93AF930E941B1508
:1023E000EFE0F7E0859194919F938F939F928F9266
:1023F0000E941B15E1E1F7E0859194919F938F93E3
:10240000BF92AF920E941B15F201859194919F9308
:102410008F93DF92CF920E941B1504EF11E020E012
:1024200030E0A501B40189E793E00E9408090FB6E6
:10243000F894DEBF0FBECDBF813009F073C1809329
:102440001A0660E08DE00E942A06E5966FACE597DB
:1024500060E0611070C18DE00E942A060E94D506DE
:10246000672B682B692B09F468C10E94D50600917F
:10247000C4011091C5012091C6013091C7016017B8
:1024800071078207930708F48CC10091C401109171
:10249000C5012091C6013091C7013B014C01601A72
:1024A000710A820A930A940183010A3F11052105EA
:1024B000310508F44AC16093C4017093C50180934B
:1024C000C6019093C70124EF31E040E050E0209333
:1024D000110730931207409313075093140710927B
:1024E000150710921607109217071092180780917F
:1024F000090790910A07A0910B07B0910C078093F0
:102500000D0790930E07A0930F07B09310070E943A
:10251000D5066093090770930A0780930B07909381
:102520000C070E94D50660930507709306078093F9
:102530000707909308070E94D5063B014C0183E6EC
:1025400091E00E94B6074AE061E070E080E090E030
:102550000E94C3078AE691E00E94B6074AE0C401E0
:10256000B3010E94C3078CE691E00E94B6078091F8
:10257000090790910A07A0910B07B0910C07A401DD
:102580009301281B390B4A0B5B0BCA01B9014AE0C6
:102590000E94C3078CE691E00E94B607609109078C
:1025A00070910A0780910B0790910C0700910D071D
:1025B00010910E0720910F0730911007601B710BCF
:1025C000820B930B4AE00E94C3078EE691E00E94C3
:1025D000B6070E94D5064AE00E94C30780E791E053
:1025E0000E94B6078FE491E00E94B6070E94D506CC
:1025F0003B014C01DC01CB010596A11DB11DE89604
:102600008CAF9DAFAEAFBFAFE8970E94D506661501
:1026100077058805990558F0E8962CAD3DAD4EAD8F
:102620005FADE897261737074807590770F70E94EC
:10263000D5066093090770930A0780930B07909360
:102640000C0783C0823009F432CB61E08DE00E9438
:102650002A0631E0E5963FAFE59732CB60E08DE0AA
:102660000E942A0679CB61E08DE00E942A0651E0A3
:10267000E5965FAFE597C3CB61E08DE00E942A0647
:1026800031E0E5963FAFE597F4CB60E08DE00E9446
:102690002A0631E0E5963FAFE59747CC61E08DE053
:1026A0000E942A0631E0E5963FAFE5977ECC60E0D8
:1026B0008DE00E942A06C8CC61E08DE00E942A06C7
:1026C000B1E0E596BFAFE59703CD61E08DE00E94F4
:1026D0002A06B1E0E596BFAFE5974FCDEBE2F6E015
:1026E00024E0DF011D922A95E9F744E050E0BC01A7
:1026F000CF010E94281860E08DE00E942A067FCD5D
:1027000061E08DE00E942A0631E0E5963FAFE59753
:10271000FECD61E08DE00E942A0631E0E5963FAFF4
:10272000E5973ECE823019F410921A068ACE61E007
:102730008DE00E942A0661E08ECE0E94D5066230AE
:1027400071058105910508F090CEA9E7B3E0EAEFA5
:102750001D92EA95E9F7D501EFE01D92EA95E9F7B8
:10276000D601EFE01D92EA95E9F7ACE0B1E00D90FB
:102770000020E9F79D012D50314040E0842F90E08A
:1027800082179307B8F4845F9E4FFC01808190ED1F
:10279000980F9A3020F08154863008F0C8C04F5FFF
:1027A000EDCF6093C4017093C5018093C6019093EF
:1027B000C7016BCEEBE7F7E0859194912CE0622E98
:1027C00021E0722E7F926F929F938F9329E733E0DF
:1027D0003F932F930E941B15F101859194919F9334
:1027E0008F93BF92AF920E941B15F2018591949135
:1027F0009F938F93DF92CF920E941B1508E512E002
:1028000020E030E0A601B50189E793E00E940809C5
:102810000FB6F894DEBF0FBECDBF813009F087C080
:10282000F5018FE0682E11926A94E9F7D601EFE086
:102830001D92EA95E9F7E5E0F7E0859194919F9381
:102840008F93BF92AF920E941B15E5E1F7E085914F
:1028500094919F938F93DF92CF920E941B15A7EEC6
:10286000B2E0E0E91D92EA95E9F710927803109240
:1028700077030E94D5063B014C010FB6F894DEBFEA
:102880000FBECDBF10E000E00E94D50666197709A3
:1028900088099909683B7B408105910508F047C08C
:1028A0008091D90281115AC08CE392E00E947B058D
:1028B000892BB9F00F381105A0F48091D902882333
:1028C00089F18FEFF801E752FD4F868780917703FA
:1028D00090917803019690937803809377030F5F2C
:1028E0001F4FE0907703F0907803A501B70187EEC2
:1028F00092E00E94070881111AC0A601B70187EE75
:1029000092E00E940708811112C00E94D506661548
:1029100077058805990508F0B7CF0E94D5063B01D9
:102920004C01B2CF8CE392E00E945905CBCF60E01E
:102930008DE00E942A0668E873E180E090E00E9442
:10294000A20640E050E0452B09F488CD0E9487059F
:10295000882309F483CD0E94000080CD0F38110533
:1029600008F0BFCFAECF1F93FC0199278827BC0189
:10297000E89411911032E9F3193010F01E30C8F3C9
:102980001B3251F01D3249F4689406C00E940615AE
:10299000610F711D811D911D119110531A30B0F3FB
:1029A0003EF490958095709561957F4F8F4F9F4F26
:1029B0001F91089549E457E00E94DF140895FA0139
:1029C000A191B081009719F41097E1F0CD01DC01DD
:1029D000CD010D90002011F4C00113C0FB01219125
:1029E000222319F02015D9F7F3CFFB0121912015EF
:1029F00019F41E92119606C02223C1F70D900020F3
:102A0000A1F7D001FA01A193B0830895592F482F5F
:102A1000372F262F660F771F881F991F660F771F86
:102A2000881F991F620F731F841F951F660F771FE2
:102A3000881F991F0895AEE0B0E0E1E2F5E10C9443
:102A4000EC170D891E898EE08C831A8309838FEF22
:102A50009FE79E838D83AE01475E5F4F6F89788DC0
:102A6000CE0101960E943E152F813885020F131F5B
:102A7000F80110822E96E4E00C940818ABE0B0E068
:102A8000E4E4F5E10C94DE177C013B018A01FC01D2
:102A900017821682838181FFC8C1CE0101965C0135
:102AA000F7019381F30193FD859193FF81913F019C
:102AB000882309F453C1853239F493FD859193FF3E
:102AC00081913F01853229F4B70190E00E942E17D1
:102AD000E7CF912C212C312CFFE1F31538F08B320C
:102AE00011F190F4803209F1833229F137FC3CC0B6
:102AF00020ED280F2A3050F536FE20C08AE0989E3F
:102B0000200D1124922E06C08D3291F0803371F782
:102B1000689430F8F30193FD859193FF81913F0113
:102B20008111DACF21C0689431F8689432F8F2CF7D
:102B3000689433F8EFCF689434F8ECCFEAE02E9E37
:102B4000200D1124222E689435F8E4CF8E3229F41A
:102B500036FC04C1689436F8DDCF8C3619F46894DD
:102B600037F8D8CF8836B1F2982F9F7D955493309F
:102B7000E0F08336A1F18337C1F1833509F063C0FA
:102B80002801F2E04F0E511CF801C080D180692D60
:102B900070E036FC02C06FEF7FEFC6010E9418178D
:102BA0004C01689437F882010AC00C5F1F4FFFE3A5
:102BB000F98388248394912C6501E89437F833FED7
:102BC0002DC0522C8114910471F5552009F468CF61
:102BD000B70180E290E00E942E175A94F6CFF801D8
:102BE000808189830E5F1F4FE4CF2801F2E04F0EF2
:102BF000511CF801C080D180692D70E036FC02C004
:102C00006FEF7FEFC6010E9423174C018201D5CFE1
:102C1000B70180E290E00E942E172A94281419042C
:102C200009F0B0F7CECFF60137FC859137FE8191E0
:102C30006F01B70190E00E942E1751105A94F1E0F5
:102C40008F1A9108BFCF843619F0893609F077C002
:102C5000F80137FE6BC060817181828193810C5FC6
:102C60001F4FF32DFF763F2E97FF09C0909580955B
:102C7000709561957F4F8F4F9F4F689437F82AE08A
:102C800030E0A5010E945E17C82ECA188C2C432C78
:102C900036FE0CC0E89440F8C91440F434FE05C078
:102CA00032FC03C0F32DFE7E4F2E892C44FE95C0CE
:102CB000FE01EC0DF11D8081803309F087C0242DC9
:102CC000297E422E842D8870582E43FC95C040FEEC
:102CD0008FC09C2C821418F42C0C922C981844FE53
:102CE00091C0B70180E390E00E942E1742FE09C018
:102CF00088E790E041FE02C088E590E0B7010E94BD
:102D00002E17C91408F48AC0CA94D12C9FEFC91A8F
:102D1000D90ACA0CDB1CF60182916F01B70190E061
:102D20000E942E17AC14BD04B1F74FCF60817181A2
:102D3000072E000C880B990B0E5F1F4F92CFD32CE0
:102D4000E894D4F82AE030E0853739F1232D297F43
:102D5000D22E8F3601F148F48835A9F0F70186812B
:102D600097812B96E2E10C94FA17803749F0883767
:102D7000A9F7D4FE02C06894D2F820E130E00DC07B
:102D80006894D4F8F6CF34FE03C0822F8660D82E24
:102D900020E132E002C028E030E0F801D7FE0FC0A9
:102DA00060817181828193810C5F1F4FA5010E9418
:102DB0005E17C82ECA183D2CE89437F867CF60819B
:102DC000718190E080E00E5F1F4FF0CF42FC02C0A7
:102DD000839478CF8394839475CF842D867809F477
:102DE00071CFF6CFB70180E290E00E942E17839456
:102DF0008214C0F3512C73CF522C5818821408F44B
:102E00006ECFF8CF842D867809F47BCF8BE241FE1C
:102E100080E247FC8DE2B70190E071CFB70180E31B
:102E200090E00E942E179A946CCF8FEF9FEF99CF6E
:102E3000FC010590615070400110D8F78095909585
:102E40008E0F9F1F0895FC0161507040019001108A
:102E5000D8F7809590958E0F9F1F08950F931F931D
:102E6000CF93DF93182F092FEB018B8181FD09C0D0
:102E70001FEF0FEF812F902FDF91CF911F910F91B7
:102E8000089582FF14C02E813F818C819D81281777
:102E900039073CF4E881F981CF0101969983888351
:102EA00010838E819F8101969F838E83E3CFE88577
:102EB000F985812F0995892BA1F3DACFFA01AA2789
:102EC000283051F1203181F1E8946F936E7F6E5F6D
:102ED0007F4F8F4F9F4FAF4FB1E03ED0B4E03CD01B
:102EE000670F781F891F9A1FA11D680F791F8A1FFE
:102EF000911DA11D6A0F711D811D911DA11D20D065
:102F000009F468943F912AE0269F11243019305D1E
:102F10003193DEF6CF010895462F4770405D41930F
:102F2000B3E00FD0C9F7F6CF462F4F70405D4A335C
:102F300018F0495D31FD4052419302D0A9F7EACF24
:102F4000B4E0A6959795879577956795BA95C9F753
:102F500000976105710508959B01AC010A2E069446
:102F60005795479537952795BA95C9F7620F731FFF
:102F7000841F951FA01D0895A1E21A2EAA1BBB1B3A
:102F8000FD010DC0AA1FBB1FEE1FFF1FA217B30735
:102F9000E407F50720F0A21BB30BE40BF50B661F4B
:102FA000771F881F991F1A9469F76095709580950F
:102FB00090959B01AC01BD01CF0108952F923F92E6
:102FC0004F925F926F927F928F929F92AF92BF9239
:102FD000CF92DF92EF92FF920F931F93CF93DF93E5
:102FE000CDB7DEB7CA1BDB0B0FB6F894DEBF0FBE42
:102FF000CDBF09942A88398848885F846E847D848F
:103000008C849B84AA84B984C884DF80EE80FD8090
:103010000C811B81AA81B981CE0FD11D0FB6F89406
:10302000DEBF0FBECDBFED010895EE0FFF1F05906F
:10303000F491E02D0994FB01DC0104C08D91019015
:10304000801921F441505040C8F7881B990B08950E
:10305000FB01DC014150504048F001900D920020EE
:10306000C9F701C01D9241505040E0F70895F8940F
:02307000FFCF90
:103072006F6E00342F3500736631320030313032DA
:103082003033303430353036303730383039304103
:10309200304230433044304530460000000000BD2D
:1030A200051C054A050A067B0559056D0500000049
:1030B2000068073B07B30749053407210712070DCC
:1030C2000A00564D4450565F317C315F564D445094
:1030D200560A00564D4450455F003A323A007C0091
:0830E2005F564D44504500000B
:107E0000112484B714BE81FFF0D085E080938100F7
:107E100082E08093C00088E18093C10086E0809377
:107E2000C20080E18093C4008EE0C9D0259A86E02C
:107E300020E33CEF91E0309385002093840096BBD3
:107E4000B09BFECF1D9AA8958150A9F7CC24DD24C4
:107E500088248394B5E0AB2EA1E19A2EF3E0BF2EE7
:107E6000A2D0813461F49FD0082FAFD0023811F036
:107E7000013811F484E001C083E08DD089C08234E0
:107E800011F484E103C0853419F485E0A6D080C0E4
:107E9000853579F488D0E82EFF2485D0082F10E0AE
:107EA000102F00270E291F29000F111F8ED06801E7
:107EB0006FC0863521F484E090D080E0DECF843638
:107EC00009F040C070D06FD0082F6DD080E0C81688
:107ED00080E7D80618F4F601B7BEE895C0E0D1E017
:107EE00062D089930C17E1F7F0E0CF16F0E7DF06D8
:107EF00018F0F601B7BEE89568D007B600FCFDCFD4
:107F0000A601A0E0B1E02C9130E011968C91119780
:107F100090E0982F8827822B932B1296FA010C0160
:107F200087BEE89511244E5F5F4FF1E0A038BF0790
:107F300051F7F601A7BEE89507B600FCFDCF97BE46
:107F4000E89526C08437B1F42ED02DD0F82E2BD052
:107F50003CD0F601EF2C8F010F5F1F4F84911BD097
:107F6000EA94F801C1F70894C11CD11CFA94CF0C13
:107F7000D11C0EC0853739F428D08EE10CD085E9AC
:107F80000AD08FE07ACF813511F488E018D01DD067
:107F900080E101D065CF982F8091C00085FFFCCF94
:107FA0009093C60008958091C00087FFFCCF809118
:107FB000C00084FD01C0A8958091C6000895E0E648
:107FC000F0E098E1908380830895EDDF803219F02E
:107FD00088E0F5DFFFCF84E1DECF1F93182FE3DFCA
:107FE0001150E9F7F2DF1F91089580E0E8DFEE27F6
:047FF000FF270994CA
:027FFE00040479
:0400000300007E007B
:00000001FF